:020000040800F2
:1000000050390020890200085B33000841300008A5
:1000100059330008A5120008853C000800000000C4
:10002000000000000000000000000000F1010008D6
:10003000831300080000000035020008693500083D
:10004000A3020008A3020008A3020008A3020008FC
:10005000A3020008A3020008A3020008A3020008EC
:10006000A3020008A3020008A3020008A3020008DC
:10007000A3020008A3020008A30200084D13000811
:10008000A3020008A3020008A3020008A3020008BC
:10009000A3020008A9120008A3020008A302000896
:1000A000A3020008A3020008A3020008A30200089C
:1000B000E5350008A3020008A3020008A302000817
:1000C000A3020008A3020008A3020008A30200087C
:1000D000A3020008793C0008A3020008A30200085C
:1000E000A3020008A3020008A3020008A30200085C
:1000F000A3020008A3020008A3020008A30200084C
:10010000A3020008A3020008A3020008A30200083B
:10011000A3020008A3020008A3020008A30200082B
:10012000A3020008A3020008A3020008A30200081B
:1001300000F002F800F04DF80AA090E8000C8244AC
:100140008344AAF10107DA4501D100F042F8AFF289
:10015000090EBAE80F0013F0010F18BFFB1A43F0A5
:10016000010318470459000024590000103A24BF25
:1001700078C878C1FAD8520724BF30C830C144BF0C
:1001800004680C607047000000230024002500264E
:10019000103A28BF78C1FBD8520728BF30C148BFEA
:1001A0000B607047642900F0EB80782900F024810F
:1001B000732900F02583002070471FB59DE80300D8
:1001C00000F062FE00F068FB1FBD10B500F0CDFB33
:1001D00010BD00F030FC1146FFF7EFFF03F078FD93
:1001E00000F020FE03B4FFF7F0FF03BC00F0BEFFF9
:1001F000224B19680868B0E8F00F80F30988BFF354
:100200006F8F4FF0000080F311884EF00D0E704795
:100210000000000006480068006880F3088862B6A5
:1002200061B6BFF34F8FBFF36F8F00DF00BF00BF1A
:1002300008ED00E0EFF30980BFF36F8F0F4B1A68F2
:1002400020E9F00F106008B54FF0500080F31188DE
:10025000BFF34F8FBFF36F8F04F020FD4FF000000E
:1002600080F31188BDE8084019680868B0E8F00F0D
:1002700080F30988BFF36F8F704700BF38000020FC
:10028000EFF30580704700000948804709480047A0
:10029000FEE7FEE7FEE7FEE7FEE7FEE7FEE7FEE736
:1002A000FEE7FEE704480549054A064B7047000093
:1002B000E13500083101000850330020503900209A
:1002C00050350020503500200FB4044910B503AA62
:1002D000029800F099FA10BC5DF814FB4832002037
:1002E00070B5044685690068C10601D5302600E076
:1002F0002026C00707D070BDD4E9012130469047C1
:10030000206A401C20626D1EF6D570BD70B5044693
:1003100085690078C00707D170BDD4E9012120208C
:100320009047206A401C20626D1EF6D570BD70B5E6
:100330000C460546012A05D02878800600D5EA69D2
:10034000002302E0012305E05B1C934202D2E05C43
:100350000028F9D1A869E618C01AA861286A1844CB
:1003600028622846FFF7BCFF04E0D5E9012114F814
:10037000010B9047B442F8D32846FFF7C7FF70BD82
:100380002DE9F0410646002410687529314616A56E
:1003900010D0AFF30080002802DA404213A507E036
:1003A00031688A0701D512A502E0490704D511A5D5
:1003B000012401E0AFF3008000210A2206F12407A6
:1003C00009E0B0FBF2FCB0FBF2F302FB1C003030A2
:1003D00078541846491C0028F3D123462A46304653
:1003E000BDE8F04100F088B9000000002D000000D9
:1003F0002B0000002000000070B504460D46214689
:100400001068AFF300802188090502D50F4A7A44AD
:1004100002E00E4A7A440E32002104F1240305E082
:1004200000F00F060009965D5E54491C0028F7D1C4
:1004300020780023000704D5702D02D009B10223D3
:1004400011322046BDE8704000F056B90455000056
:100450002DE9F05F894604464FF0000ADFF824B129
:10046000FB44C0F820A02046E168884700287DD0E2
:10047000252806D0D4E901219047206A401C20623B
:10048000F1E700255F462046E168884720280646B8
:1004900007DB312E05D2B81910F8200C08B105433E
:1004A000F1E7A80701D525F00405C4F81CA0002732
:1004B000C4F818A02A2E09D0304603F0F4FB38B354
:1004C00004EB8708303EC8F8186019E059F8041B9F
:1004D000204604EB87029161E1688847012F0646B8
:1004E00018D1E069002820DA25F020051DE0D8F8B1
:1004F000180000EB800006EB40003038C8F8180008
:100500002046E1688847064603F0CDFB0028EED17F
:10051000012F0AD02E2E08D12046E16888477F1C83
:100520000646022F45F02005C4DBA069002803DA47
:10053000404245F00105A061E80701D025F0100513
:10054000A6B1A6F14100192802D8203645F400656D
:100550004A463146204625604D46FFF723FE60B1EE
:10056000012807D0ED1D25F0070000E007E000F1AD
:10057000080978E705F1040975E730467AE7206A4B
:10058000BDE8F09FDA54000010B5431C02E010F8FB
:10059000011B71B18107FAD14FF0013202C88C1AE8
:1005A0008C4314EAC211F9D0C01A0A0603D0C01E47
:1005B00010BDC01A10BD0A0401D0801E10BD090272
:1005C000FCD0401E10BD032A40F2308010F0030C16
:1005D00000F0158011F8013BBCF1020F624498BF96
:1005E00011F801CB00F8013B38BF11F8013BA2F133
:1005F000040298BF00F801CB38BF00F8013B11F0AE
:10060000030300F01381083AC0F0088051F8043B5E
:10061000083A51F804CBA0E80810F5E7121D5CBFBA
:1006200051F8043B40F8043BAFF30080D20724BFED
:1006300011F8013B11F801CB48BF11F8012B24BF81
:1006400000F8013B00F801CB48BF00F8012B7047D0
:1006500002F0FF0343EA032242EA024200F002B83A
:100660004FF000020429C0F0128010F0030C00F0DB
:100670001B80CCF1040CBCF1020F18BF00F8012B59
:10068000A8BF20F8022BA1EB0C0100F00DB85FEA27
:10069000C17C24BF00F8012B00F8012B48BF00F8F3
:1006A000012B70474FF0000200B513469446964662
:1006B000203922BFA0E80C50A0E80C50B1F1200175
:1006C000BFF4F7AF090728BFA0E80C5048BF0CC023
:1006D0005DF804EB890028BF40F8042B08BF704781
:1006E00048BF20F8022B11F0804F18BF00F8012BF3
:1006F00070477047704770472DE9F0470D4699469F
:100700009246044600F124080168880604D5E06991
:1007100021F01001216000E00120A84201DD471B0B
:1007200000E00027A1697A1902EB0900081AA0610C
:100730002078C00602D42046FFF7D2FD002608E04C
:10074000D4E901211AF806009047206A401C761C63
:1007500020624E45F4DB2078C0060AD52046FFF71C
:10076000BFFD06E0D4E9012130209047206A401CFB
:100770002062381EA7F10107F4DC07E0D4E901216B
:1007800018F805009047206A401C2062281EA5F139
:100790000105F3DC2046FFF7B9FD2078000602D5FD
:1007A0000220BDE8F0870120FBE7000001694A1C38
:1007B00002610878704700B58FB0CDE901310021A2
:1007C000059105497944CDE9031011466846FFF7C4
:1007D0003FFE0FB000BD0000E5FFFFFF10B543690D
:1007E00013B1AFF3008001E0FFF7A1FD012010BDC0
:1007F000127800F124010A7000224A700122EDE70C
:1008000011684FF0FF32E9E7074B70B50D467B44A6
:10081000FFF7D1FF0446284600F03AF810B14FF038
:10082000FF3070BD204670BDA334000010B5203AE3
:10083000C0F00B80B1E81850203AA0E81850B1E899
:100840001850A0E81850BFF4F5AF5FEA027C24BF4F
:10085000B1E81850A0E8185044BF18C918C0BDE846
:1008600010405FEA827C24BF51F8043B40F8043B0F
:1008700008BF7047D20728BF31F8023B48BF11F8C4
:10088000012B28BF20F8023B48BF00F8012B70471E
:10089000007B00F08000704710B542485421FFF7FC
:1008A00001FF41485421FFF7FDFE40485421FFF766
:1008B000F9FE3F493B483C4A3F4B08603D490A60CE
:1008C0003A491960531C0365481C106501200865EE
:1008D0003B48344A39A1784400F008FA20B9384836
:1008E00078440A3800F0A7FA37482F4A35A17844EF
:1008F00000F0FCF920B9344878440A3800F09BFA3B
:1009000032482A4A2FA1784400F0F0F920B92F4844
:1009100078440A3800F08FFA40232248DC00002196
:10092000224600F0BFF920B125487844543800F041
:1009300082FA1D4822464023002100F0B3F920B17D
:1009400021487844543800F076FA1848224610239B
:10095000002100F0A7F9002806D01C487844BDE823
:100960001040563800F067BA10BD104870B5006DE1
:1009700020F001040B4800F02FFA0B4800F02CFA8D
:100980000A4800F029FA09E0206D20F00105204610
:1009900000F022FA204600F073F82C46002CF3D128
:1009A00070BD0000F4310020483200209C3200204D
:1009B000B8000020BC000020C00000207200000031
:1009C0007550000077000000615000004D5000009D
:1009D0000EB5CDE90001FFF7D7FD02906946012071
:1009E000ABBE0EBD08B5694600900220ABBE08BD87
:1009F0001FB58DE8070069460520ABBE04B010BDE9
:100A00001FB58DE80F0069460620ABBEF6E708B5B6
:100A1000694600900920ABBE08BD1CB5CDE90001B8
:100A200069460A20ABBE1CBD704708B569460090F8
:100A30000C20ABBE08BD754600F004FAAE460500BA
:100A40006946534620F00700854618B020B5FFF7E9
:100A500029FCBDE820404FF000064FF000074FF0A2
:100A600000084FF0000B21F00701AC46ACE8C009CC
:100A7000ACE8C009ACE8C009ACE8C0098D467047D5
:100A800070B50446051F00F0E3F90068002C14BFA0
:100A9000446870BD002C18BFAC423CBF204664685F
:100AA000F8D301680A18AA4218BF456003D12A6822
:100AB00005461144016028684119A1421CBF6C60C1
:100AC00070BD6168696021680844286070BD2DE9C7
:100AD000F04705460C46C86820F4201040F480001A
:100AE000C860800602D5084600F0FFFAE06841F2CF
:100AF00082014FF0FF390140022903D0204600F067
:100B00009DFAB5E000F42041B1F5004F0FD1C003CC
:100B100006D56168E06A884200D80846606006E051
:100B20002069E06260606069FFF77FFFA061A068F4
:100B30000022EEB200280DDAE1688B050AD4C0432A
:100B4000A06041F490302260E0606068411C616008
:100B50000670A5E0E0689046226040F40050E06036
:100B6000206968BB6069FFF752FF012704F1240583
:100B7000A0B1A08910F4407F08D0E06900F0B3F97B
:100B8000206118B1E06840F4006016E0E76125617B
:100B9000E06820F4407040F480600EE0E06900F00E
:100BA000A2F900282061F1D0E06840F4006010F460
:100BB000407FE06002D140F48070E06020696060B6
:100BC000E06825696FF0010AC1051FD56168E06A18
:100BD000884200D80846411B04D02246284600F02F
:100BE00037FAF0BBE068010203D5E562C4E90158B9
:100BF00054E0691CE1626160E16940F48030491EA3
:100C0000C4E9021030462E70BDE8F087010202D51B
:100C100000F480320AE06068411C61600670E068A0
:100C20000A2E40F48030E06006D00022E16A60685D
:100C3000814203D90B4602E00122F7E70346A78968
:100C40005B1B7F0503D4E7699F4200DDE2B181426F
:100C500000D80146E5620F1AC4E90158002B09DDEE
:100C600000E005E022461946284600F0F1F908B1F7
:100C70004846C9E747B1A069E5626560C01BA0614D
:100C8000E06840F01000E060E068000208D56168AC
:100C9000A069E562491B08446560A0615046B3E75E
:100CA0003046B1E770B5C468A50713D0650211D40A
:100CB000B2F5807F09D0B2F5007F06D0B2F5806F23
:100CC00008D1012300F1240106E05D1E6FF07F468C
:100CD000B54201D3012070BD0161C361416024F4BC
:100CE00070611143C160002070BD00002DE9F0412A
:100CF0000C4607461646104600F06EF82078611C38
:100D000061280AD0722802D077283CD102E0012560
:100D1000002405E00225042402E0082448F202052C
:100D200011F8010B2B2806D0622809D011F8010C0C
:100D300074280AD00BE045F0030544F00204EFE705
:100D400045F0040544F00104EAE744F01004384695
:100D50002146FFF73DFE411C15D000213161716035
:100D60004FF40071F560F1617061200704D53046E1
:100D70000222002100F0E6F8306D40F001003065FD
:100D80003046BDE8F0810020FBE72DE9F0410D463B
:100D90000646104C206DC10704D0410804D020F055
:100DA0000104F7E722460EE0542000F09CF807000B
:100DB0000ED0206D47F001010843542120653846CC
:100DC000FFF770FC3A4629463046BDE8F0418DE712
:100DD0000020D6E7F43100202DE9F04704464FF01B
:100DE00000094FF0FF37C568D4E90486A80707D08B
:100DF000204600F057F93046FFF7F4FD002802DAEC
:100E00003846BDE8F087280502D54046FFF738FE92
:100E10004C212046FFF746FC206D20F001002065A4
:100E20004846EEE710B50446AFF300802046BDE823
:100E30001040FFF7D7B910B500F07EF9BDE81040BB
:100E400000F074B900487047F0320020704700008D
:100E500000487047F832002070477047704770476D
:100E600038B504460A4600206946AFF300800028E2
:100E700008BF38BD02460099204600F084F90120E1
:100E800038BD012000F0D3B9F8B5AFF300800546B6
:100E900000200C46102000BF0646A819A0420DD91C
:100EA000324669460020AFF30080070008BF00F01B
:100EB000BEF90098A04218BF0546C419FFF7C8FF45
:100EC00005600746F01D20F007004619284600F08F
:100ED00053F9B44208BFF8BDA21B31463868BDE8DB
:100EE000F84000F050B970B50646FFF7B1FF05684D
:100EF00006F10B0020F00704B4429CBF002070BD37
:100F00002B466A68BAB11068A04210D304F10801F8
:100F100088423CBF5068586007D35168101941603F
:100F20001168091B016058601460101D70BD1346E4
:100F30005268002AE7D121462846FFF791FF002892
:100F4000DED170BD2DE9F041044616460D464769D5
:100F5000007B80072ED03846FFF759FD50BB3EB3CB
:100F6000012E02D0022E25D104E0204600F025F902
:100F700005441DE03846FFF758FDE168002841F0C0
:100F80001001E16005DA204600F058F80120BDE8C4
:100F9000F081C9030BD56268E16A914200D811461D
:100FA000A26911442269891A814200DD084605447C
:100FB000002D01DA0220EAE7E16A6068E268814216
:100FC00006D29103E06203D522F4003141F0100211
:100FD000A6690027AE4213DCE16A814201D90B46C3
:100FE00000E0034603EB060C2369ACEB030CAC45B5
:100FF00006DD814201D98C4600E084469C4505D13E
:10100000A760276042F02000A5620DE0AD1BE669F5
:10101000AE1B8142A66000D90846C01A281A20607B
:101020005819606022F0200003490840E060002069
:1010300084F84870ABE70000BFCFD7FFC16821F448
:10104000001141F08001C1600021816001607047A2
:101050002DE9F047814614460E464FF0FF383248DE
:10106000D5685769054209D03846A169FFF7D5FC14
:10107000002811DB2C48C0430540E5602B46324672
:1010800049463846FFF7B4FCA16920F00042B21A85
:1010900011440028A16103D02046FFF7CFFF40464E
:1010A000BDE8F08770B504460569C06A616888428A
:1010B00000D80846E16821F42011E160C90312D587
:1010C000A84208D02246411B2846FFF7C1FF10B1B5
:1010D0004FF0FF3070BD0020E562C4E90150E068C8
:1010E00020F48030E060002070BD10B50446C06878
:1010F00020F02000E060A16AA06988420DD020465F
:10110000FFF7D0FFE06820F4405040F01000E060AE
:10111000A06AA0612069E062606044F24001E0687A
:101120008843E06010BD000010000200002801D0DC
:1011300000F01CB87047000010B5014602A000F096
:101140005DF8012010BD00005349475254524544F8
:101150003A2052656469726563743A2063616E2750
:1011600074206F70656E3A2000000000014918205D
:10117000ABBEFEE72600020000210160C0E90110BD
:10118000704710207047034640688C46002818BFFF
:1011900088423CBF03464068F8D318681844884228
:1011A00007D00CF1030020F00700001D411A521A6D
:1011B0000146081D0A60FFF763BC10B50146C2680E
:1011C000900703D0900607D5886A0AE000F03EF841
:1011D00001210160881E10BD8B69486818440B69A5
:1011E000C01A91F848301BB191F84910401A10BD4F
:1011F0001103FCD50028FADD401E10BD70B5054670
:101200000C460A2000E06D1C00F018F835B1287873
:101210000028F8D102E0641C00F010F814B1207826
:101220000028F8D1BDE870400A2000F007B810B5DA
:1012300000F010F8BDE81040FFF778BF08B5694628
:101240008DF800000320ABBE08BD000000487047C9
:10125000F032002010B5012805D0002103A0FFF7CF
:10126000CDFF012010BD09A1F8E700005349475206
:10127000544D454D3A204F7574206F662068656166
:1012800070206D656D6F7279000000003A2048652E
:101290006170206D656D6F727920636F7272757009
:1012A00074656400FEE70000014800F0FAB8000031
:1012B000DC03002030B5817ACA1E062A17D2C27A12
:1012C000AA2A14D100F10A028A5C552A0FD1002300
:1012D00001228C1E05E08518521CED7AD2B22B44F7
:1012E000DBB29442F7DC0930085C984201D002205E
:1012F00030BD002030BD70B5CD7BB1F80D300E7C17
:1013000065F307020A215BBA66F30F2261F3174205
:10131000642B01D2642304E042F21074A34200D98A
:1013200023465A2D01D961F307025A24142E01D203
:1013300064F30F22D5B2C2F30726B54203D361F39B
:10134000070264F30F22C0E9003270BD014800F0CB
:10135000B5BB00009404002030B590F84050012443
:10136000AC40C56B6C60046863604368102B036815
:1013700003D099600068C26030BD9A600068C160A7
:1013800030BD704772B6FEE790F82020012A07D0E2
:10139000022A05D0416A41F4802141620120704750
:1013A000006842690A43426100207047704770B587
:1013B00090F82040012C05D0022C03D0416A41F462
:1013C000802128E0046809B32469A40720D04FF4E1
:1013D000D874056804EB01142D5915F004059560C7
:1013E00005682D591AD0ED08556005682C5904F090
:1013F0000204D4604FF4DA74056804EB01142E592A
:1014000006F00F06082E0CD308250DE0E468DCE793
:10141000416A41F400114162012070BD6D0D1560FB
:10142000E3E72D5905F00F05156105682D59C5F342
:101430000725956105682C59240C54614FF4DC7222
:10144000046802EB0112A4581C700468A458240A12
:101450005C700468A458240C9C700468A258120E96
:10146000DA704FF4DE72046802EB0112A4581C71AA
:101470000468A458240A5C710468A458240C9C7164
:101480000468A258120EDA71006829B1016941F0AE
:1014900020010161002070BDC16841F02001C160E0
:1014A000F8E72DE9F05F0546006800244669D0F8AA
:1014B00004908768D0F80CB0D0F810A0D0F818804D
:1014C000F10748D0F90714D001218160B80703D58E
:1014D000284600F032FA0CE0780702D54FF4006499
:1014E00007E0380702D54FF4805402E0284600F0A8
:1014F00023FAF80516D529684FF480708860B8057E
:1015000003D5284600F01BFA0CE0780502D544F418
:10151000005407E0380502D544F4804402E0284630
:1015200000F00CFAF80316D529684FF48030886073
:10153000B80303D5284600F004FA0CE0780302D57E
:1015400044F4004407E0380302D544F4803402E058
:10155000284600F0F5F9300707D55FEACB6004D5DF
:101560002968102044F40074C86070074FF0080721
:1015700007D55FEA0B7004D52868C760284600F0DD
:1015800059F9B00706D52868C068800702D02846F8
:1015900000F052F9700607D55FEACA6004D52968E1
:1015A000102044F480640861B00607D55FEA0A7031
:1015B00004D528680761284600F08EF9F00606D5A4
:1015C00028680069800702D0284600F086F9B00339
:1015D00008D55FEAC96005D529681020486028460B
:1015E00000F07CF9F00307D55FEA097004D528689C
:1015F0004760284600F0A6F9300446D55FEA4970F6
:1016000040D5F00504D55FEAC87001D044F001046C
:10161000B00504D55FEA887001D544F00204700576
:1016200004D55FEA487001D544F00404300529D59B
:1016300018F0700F26D008F07000402815D006DC96
:10164000102809D020280AD0302816D10AE05028C6
:101650000ED0602811D10EE044F008040DE044F0F3
:1016600010040AE044F0200407E044F0400404E0E1
:1016700044F0800401E044F480742868816921F01A
:1016800070018161296804204860002C05D0686AD7
:10169000204368622846FFF789FEBDE8F09F70B5D9
:1016A000040003D094F8200010B104E0012070BDC4
:1016B000204600F081F82068016841F001010160D6
:1016C00000F092FC0546052604E000F08DFC401B6E
:1016D0000A2811D820684068C007F6D02068016841
:1016E00021F00201016000F07FFC05460BE000F0F4
:1016F0007BFC401B0A2806D9606A40F40030606217
:1017000084F82060D2E7206840688007EFD4207E0C
:101710000128206801683DD021F080010160607ED1
:1017200001282068016838D021F040010160A07EC6
:1017300001282068016833D021F020010160E07E9B
:101740000128206801682ED041F010010160207F3F
:1017500001282068016829D021F008010160607F1C
:1017600001282068016824D021F004010160D4E937
:1017700002010843D4E90412114308436168491E79
:1017800008432168C86100206062012084F82000BD
:10179000002070BD41F08001C0E741F04001C5E785
:1017A00041F02001CAE721F01001CFE741F0080124
:1017B000D4E741F00401D9E710B586B000210091CB
:1017C0000191029103910068174988422AD1174874
:1017D000C16941F00071C161C16901F000710491FA
:1017E000816941F0040181618069114C00F00400BD
:1017F00004904FF4006000906946204600F0F8FA2B
:10180000A014009002200190032003906946204616
:1018100000F0EEFA00220521152000F083FC1520CF
:1018200000F072FC06B010BD0064004000100240E1
:10183000000801407047000000B5144A01688DB0EF
:1018400091421AD106AA00210DF10B03FFF7AFFD5B
:10185000002812D1069800900A988DF80A0000F02E
:10186000C3FB05900A4800231A466946006802F047
:10187000F1FA20B107A0FEF727FD0DB000BD9DF8DD
:101880000A200AA00099FEF71FFDF6E70064004059
:101890001800002044454255473A2043414E20510C
:1018A000756575652046756C6C210A004445425586
:1018B000473A2043414E204D736720526563656966
:1018C0007665643A2049443D3078253033582044C9
:1018D0004C433D25640A0000704770477047000084
:1018E00070B5044690F82000012804D0606A40F4E6
:1018F0000020606218E0022084F82000206801685F
:1019000021F00101016000F06FFB05460EE000BF11
:1019100000F06AFB401B0A2808D9606A40F40030D6
:101920006062052084F82000012070BD20684068B6
:10193000C007EDD1606270BD704770477047704757
:1019400070477047704710B590F8211000220229A7
:1019500005D00421816380F82020012010BD01689A
:101960000B6823F00E030B6001680B6823F0010382
:101970000B6090F84030C46B012101FA03F36360FF
:1019800080F8211080F82020104610BD2DE9F05F6E
:1019900090F821100024022903D00421816301243E
:1019A00085E001680A6822F00E020A6001680A6890
:1019B00022F001020A603F4E3E4FB215DFF8F4C03C
:1019C000DFF8F090DFF8ECA0DFF8E8B0DFF8E4E053
:1019D0000168783F13011502ACF1640CA9F15009BC
:1019E000AAF13C0AABF1280BAEF1140E4FF48018AB
:1019F000B14227D9B9420ED0614512D049451DD018
:101A0000514518D0594518D0714501D1424615E0CD
:101A1000294EB14201D1012210E0274E1436B142C5
:101A200001D110220AE0244E2836B14206D0224AC3
:101A30003C32914201D11A4600E02A461E49091F54
:101A40000A602BE0B94213D0614517D0494522D036
:101A500051451DD059451DD0714501D142461AE06E
:101A6000B14202D14FF0807215E0134EB14201D164
:101A7000012210E0104E1436B14201D110220AE0CA
:101A80000D4E2836B14206D00B4A3C32914201D16C
:101A90001A4600E02A46074980394A60012180F849
:101AA0002110002180F82010416B01B188472046A9
:101AB000BDE8F09F80000240080402402DE9F05F7D
:101AC000C16B0A6801680B68046C4FF0040808FADF
:101AD00004F8844D844E854FDFF814C2DFF8149269
:101AE000DFF814A2DFF814B2DFF814E218EA020FEC
:101AF00065D05FEA437862D50A68920603D40A6823
:101B000022F004020A60DFF8F0814FF4806201687D
:101B100008F1140813011402414524D9A9420DD03B
:101B2000B1420FD0B9421AD0614515D0494515D000
:101B3000514501D1120312E0594501D104220EE0B2
:101B4000714501D140220AE06D4D1435A94206D0FD
:101B50006B4A2832914201D11A4600E02246674979
:101B6000091F0A6029E0A94213D0B14215D0B94239
:101B700020D061451BD049451BD0514502D14FF4BF
:101B8000800217E0414502D14FF0806212E05945D2
:101B900001D104220EE0714501D140220AE0584DE6
:101BA0001435A94206D0564A2832914201D11A462C
:101BB00000E022464B4908394A60C16A71E04FF0A3
:101BC000020808FA04F818EA020F70D05FEA837876
:101BD0006DD50A68920606D40A6822F00A020A60E5
:101BE000012180F82110DFF810814FF400720168A4
:101BF00008F1140813011402414524D9A9420DD05B
:101C0000B1420FD0B9421AD0614515D0494515D01F
:101C1000514501D1120312E0594501D102220EE0D3
:101C2000714501D120220AE0354D1435A94206D074
:101C3000334A2832914201D11A4600E022462F4908
:101C4000091F0A6029E0A94213D0B14215D0B94258
:101C500020D061451BD049451BD0514502D14FF4DE
:101C6000001217E0414502D14FF0007212E05945D1
:101C700001D102220EE0714501D120220AE0204D5F
:101C80001435A94206D01E4A2832914201D11A4683
:101C900000E02246134908394A60002180F82010EC
:101CA000816A00291CD0BDE8F05F0847FFE70825DE
:101CB000A540154214D01A0712D50A6822F00E0268
:101CC0000A6090F84020C36B012101FA02F25A60C9
:101CD000816380F82110002180F82010016BE0E77B
:101CE000BDE8F09F080002401C00024030000240A6
:101CF00044000240580002406C00024008040240C8
:101D00001C04024030B560B11A4B026814219A429B
:101D100009D2194B1344B3FBF1F18900016417494F
:101D20000AE0012030BD134B5B421344B3FBF1F1D9
:101D3000890001640F490839C163022180F821102C
:101D4000136843F6F0718B43F0E901142143D0E9A5
:101D500002452C432143046921434469214384699A
:101D60002143194311600021416301224277017729
:101D7000084630BD08040240F8FFFDBF00000240E5
:101D800070B5044690F82000002501280CD00120F1
:101D900084F8200094F821600020012E06D084F8F9
:101DA00020000225284670BD022070BD022684F85E
:101DB0002160A0632068066826F0010606602046C0
:101DC000FFF7CAFAE06A00282068016802D041F0F3
:101DD0000E0106E021F0040101602068016841F075
:101DE0000A0101602068016841F001010160D9E742
:101DF0002DE9F84FDFF8C8910024A9F1040B234620
:101E00000F2709F1040AABF1040ED1E00125A5402A
:101E100006EA0502AA4276D1DFF8A8C14E68A6EB11
:101E20000C0866452BD00DDC032E34D005DC36B310
:101E3000012E19D0022E2FD11BE0112E16D0122EFA
:101E40002AD119E0B8F5881F19D006DCB8F5803F13
:101E500015D0B8F5801F1FD111E0B8F5001F0ED0C6
:101E6000B8F5041F18D10AE0CB6815E0CB681B1D3C
:101E700012E0CB6808330FE0CB680C330CE08B68C2
:101E80002BB1012B4FF0080303D0456104E004237C
:101E900002E0056100E00023FF2A01D8064601E0C8
:101EA00000F104064FEA840501D9A5F12005D6F812
:101EB000008007FA05FC28EA0C0803FA05F548EA51
:101EC0000508C6F800804D68ED0070D53E4DAE693E
:101ED00046F00106AE61AD6924F0030605F0010588
:101EE00000953A4D06EB050CDCF80850A607360FB6
:101EF00007FA06F825EA0805DFF8D480404503D143
:101F00004FF0000825E052E0DFF8C880404502D1DC
:101F10004FF001081DE0DFF8C080404502D14FF0CE
:101F2000020816E0DFF8B480404502D14FF0030804
:101F30000FE0DFF8AC80404502D14FF0040808E024
:101F4000DFF8A080404502D14FF0050801E04FF0D6
:101F5000060808FA06F848EA0508CCF808804D6833
:101F6000D9F80060ED024D4601D5164300E09643D6
:101F70002E604D68DAF80060AD02554601D5164373
:101F800000E096432E604D68DBF80060AD035D46CF
:101F900001D5164300E096432E604D68DEF80060E0
:101FA000ED03754601D5164300E096432E60641C90
:101FB0000A681646E2407FF429AFBDE8F88F0000BA
:101FC0000804014000001110001002400000014010
:101FD00000080140000C01400010014000140140C5
:101FE00000180140001C0140014880687047000053
:101FF00028000020024881680278114481607047FF
:1020000028000020074810B5016841F01001016068
:10201000032000F0A7F80F2000F006F800F050F8B9
:10202000002010BD0020024030B50546204887B092
:10203000C16941F00101C161C06906A900F0010058
:10204000009001A800F036F90498B8B100F052F9F8
:10205000400018494FF08042B0FBF1F11648491E8C
:102060000260416040F2E7320021C0E90321816053
:10207000816100F055FB040003D015E000F03AF94F
:10208000E7E70D4800F08EFB04000DD11C2000F0A6
:102090003BF8102D07D2002229461C2000F042F800
:1020A0000648056000E0012407B0204630BD00006E
:1020B0000010024040420F00D80400202C000020F5
:1020C0000F4808B5816941F001018161816901F022
:1020D00001010091C16941F08051C161C0690022D4
:1020E00000F0805000900F21901E00F01BF8054872
:1020F000416821F0E06141F00071416008BD0000DD
:102100000010024000000140002809DB00F01F021F
:10211000012191404009800000F1E020C0F8001149
:1021200070470000F0B40E4B1B680C46C3F302234B
:10213000C3F10705042D00D90425191D072901D273
:10214000002300E0DB1E012606FA05F1491E2140AE
:1021500099409E40761E16403143F0BC01F093BD7D
:102160000CED00E0064900F0070208684FF6FF0397
:10217000184040EA0220034A1043086070470000FC
:102180000CED00E00000FA052DE9F0470F460500D0
:1021900061D0434E306800F00700B84209D2306881
:1021A00020F0070038433060306800F00700B84284
:1021B00051D128683B4C810712D5400703D5606890
:1021C00040F4E06060602878000703D5606840F460
:1021D000605060606068A96820F0F00008436060AB
:1021E0002878C00728D06868012810D02168022804
:1021F00010D0890700292EDA616821F0030101431C
:102200006160FFF7F1FE804641F288390DE02168F8
:102210008903EFE78901EDE7FFF7E6FEA0EB080190
:10222000494502D90320BDE8F0876068696800F07D
:102230000C00B0EB810FEFD1306800F00700B8421E
:102240000BD9306820F0070038433060306800F068
:102250000700B84201D00120E5E72878400705D5FE
:102260006068E96820F4E06008436060287800074F
:1022700006D56068296920F4605040EAC1006060BA
:1022800000F058F86168084AC1F30311515CC84076
:102290000649086006480068FFF7C6FE0020C2E74E
:1022A0000020024000100240FE58000834000020C8
:1022B0002C0000200F2202600C4A536803F0030335
:1022C0004360536803F0F0038360536803F4E063F2
:1022D000C36052684FF4E06303EAD202026104482B
:1022E000006800F00700086070470000001002401E
:1022F000002002400448054900684968044AC1F3C7
:102300000221515CC8407047340000200010024098
:102310000E5900080448054900684968044AC1F399
:10232000C221515CC84070473400002000100240B8
:102330000E5900080E4A51680E4801F00C03042B98
:1023400011D0082B0FD10C48C1F38343C903C05CE3
:102350000AD55168084AC1F34041921E515C054AB2
:102360005043B0FBF1F07047044948437047000008
:102370000010024000127A00EE58000800093D00EB
:102380002DE9F84F040070D02078C04DC00749D027
:102390006868C0F38100012807D06868C0F3810035
:1023A000022809D16868C00306D52868800339D59A
:1023B00060680028E7D035E06068B0F5803F0BD05A
:1023C00010B1B0F5A02F11D0286820F4803028601B
:1023D000286820F4802002E0286840F480302860DB
:1023E000606890B1FFF700FE06460AE0286840F4F6
:1023F00080202860F0E700BFFFF7F6FD801B64280F
:1024000073D828688003F7D50CE0FFF7EDFD06468A
:1024100005E000BFFFF7E8FD801B6428F0D82868BE
:102420008003F7D420789A4E80074FF001094FF0CF
:10243000000839D5686810F00C0F07D06868C0F341
:102440008100022809D16868C00306D42868800783
:1024500014D52069012808D110E02069B0B1C6F870
:102460000090FFF7C1FD074605E00AE1FFF7BCFD5C
:10247000C01B0228C4D828688007F7D5286861697E
:1024800020F0F80040EAC10028600DE0C6F80080A6
:10249000FFF7AAFD074604E0FFF7A6FDC01B0228D0
:1024A00023D828688007F7D4207800072CD57948EE
:1024B000A169D9B1C0F80090FFF796FD074604E086
:1024C000FFF792FDC01B02280FD8686A8007F7D576
:1024D00071484FF4FA510068B0FBF1F0009000BF72
:1024E0000098411E0091FAD20EE080E0C0F8008012
:1024F000FFF77AFD074604E0FFF776FDC01B0228D0
:1025000075D8686A8007F7D42078400760D5E869F5
:102510000027C00008D4E86940F08050E861E8690D
:10252000012700F0805000905C480168C90513D471
:102530000168834641F480710160FFF755FD8246D2
:1025400006E000BFFFF750FDA0EB0A0064284ED85C
:10255000DBF80000C005F5D5E06801280AD008B115
:10256000052813D0286A20F001002862286A20F08C
:10257000040002E0286A40F001002862E06841F2AD
:10258000883B98B1FFF730FD82460BE0286A40F0A7
:1025900004002862EEE700BFFFF726FDA0EB0A016A
:1025A00059455AD8286A8007F6D50CE0FFF71CFD7C
:1025B000824605E0FFF718FDA0EB0A0159454CD80B
:1025C000286A8007F6D41FB1E86920F08050E861DE
:1025D000E06988B36968C1F38101022944D0022807
:1025E000C6F8608004D0FFF7FFFC044638E034E012
:1025F000FFF7FAFC074604E0FFF7F6FCC01B0228D1
:102600002BD828688001F7D4206AB0F5803F05D127
:102610006868A16820F4003008436860D4E90801C4
:102620000843696821F4741108436860C6F8609033
:10263000FFF7DAFC044606E025E000BFFFF7D4FC14
:10264000001B022809D828688001F7D51BE000BFCD
:10265000FFF7CAFC001B022802D90320BDE8F88F4F
:1026600028688001F4D40EE00128F7D06868226A57
:1026700000F48031914204D1616A00F47010884204
:1026800001D00120EAE70020E8E700000010024046
:1026900000004242800442423400002000700040AA
:1026A0007047704770B590F83C20012A2CD0012467
:1026B00080F83C40022280F83D2003685A689D68FB
:1026C00022F070060A6832435A60104B02689A4240
:1026D0000ED00F4B9A420BD0B2F1804F08D00D4B69
:1026E0009A4205D00C4B9A4202D00C4B9A4204D12C
:1026F000496825F080031943916080F83D4000212E
:1027000080F83C10084670BD022070BD002C0140CE
:10271000003401400004004000080040000C00406C
:1027200010B5040003D094F83D0010B107E001207B
:1027300010BD002084F83C00204600F01FF8022065
:1027400084F83D00211D206800F052FF012084F82C
:10275000460084F83E0084F83F0084F8400084F886
:10276000410084F8420084F8430084F8440084F86F
:10277000450084F83D00002010BD000008B5006849
:102780000649884208D10648C16941F00201C16189
:10279000C06900F00200009008BD00000004004085
:1027A0000010024090F83D10012901D0012070472F
:1027B000022180F83D100168CA6842F00102CA6037
:1027C00000680E4988420ED00D4988420BD0B0F106
:1027D000804F08D00B49884205D00B49884202D06F
:1027E0000A49884204D1816801F00701062903D013
:1027F000016841F00101016000207047002C014098
:10280000003401400004004000080040000C00407B
:1028100070B5044690F83C000025012817D0012629
:1028200084F83C60022084F83D002068826822F031
:10283000770222F47F4282600868502838D00DDC8D
:1028400020284FD005DC90B3102811D14AE0022097
:1028500070BD302846D040280AD13BE060282FD0F8
:1028600070280DD0B0F5805F03D0B0F5005F12D0B6
:10287000012584F83D60002084F83C00284670BDA6
:10288000CB68D1E90121206800F00DFF2068816844
:1028900041F0770109E0CB68D1E90121206800F01F
:1028A00002FF2068816841F480418160E1E719E01E
:1028B000CA684968206800F0CBFF5021206806E014
:1028C000CA684968206800F0D4FF6021206800F0E1
:1028D000F4FECEE7CA684968206800F0B9FF4021DD
:1028E0002068F4E7226801461046F0E770472DE9BA
:1028F000F04104460068C66805694FF00007A90763
:1029000013D5B10711D5F91E016101202077206888
:1029100080698007204602D0FFF7E8FF04E000F05E
:10292000A5F8204600F037F92777680716D5700715
:1029300014D521686FF00400086102202077206818
:10294000806910F4407F204602D0FFF7CFFF04E0FB
:1029500000F08CF8204600F01EF92777280715D5DF
:10296000300713D521686FF0080008610420207734
:102970002068C0698007204602D0FFF7B7FF04E057
:1029800000F074F8204600F006F92777E80616D51F
:10299000F00614D521686FF0100008610820207738
:1029A0002068C06910F4407F204602D0FFF79EFFE8
:1029B00004E000F05BF8204600F0EDF82777E80728
:1029C00008D0F00706D021686FF0010008612046AA
:1029D00000F03CF9280608D5300606D521686FF0CE
:1029E000800008612046FFF75BFE680608D5700688
:1029F00006D521686FF040000861204600F02DF9EF
:102A0000A8060AD5B00608D521686FF02000086135
:102A10002046BDE8F041FFF744BEBDE8F08100006C
:102A200000B585B0002100910191029103910068E9
:102A30000B49884211D10B48816941F00401816141
:102A40008069694600F00400049040200090022054
:102A5000019003900448FFF7CBF905B000BD0000DA
:102A6000000400400010024000080140704770B5AB
:102A7000044690F83C0000260D4601280FD00120A6
:102A800084F83C006AB1042A1DD0082A2FD00C2AF1
:102A90003FD00126002084F83C00304670BD022063
:102AA00070BD206800F012FE2068816941F00801C5
:102AB00081612068816921F0040181612068816958
:102AC0002A69114311E0206800F030FE2068816916
:102AD00041F4006181612068816921F48061816134
:102AE000206881692A6941EA02218161D2E7206870
:102AF00000F052FE2068C16941F00801C161206800
:102B0000C16921F00401C1612068C1692A691143CA
:102B100011E0206800F074FE2068C16941F4006192
:102B2000C1612068C16921F48061C1612068C16907
:102B30002A6941EA0221C161ACE710B5040003D063
:102B400094F83D0010B107E0012010BD002084F88A
:102B50003C00204600F01EF8022084F83D00211DB4
:102B6000206800F045FD012084F8460084F83E000E
:102B700084F83F0084F8400084F8410084F8420063
:102B800084F8430084F8440084F8450084F83D004C
:102B9000002010BD7047704710B50446022249B1AD
:102BA00004290ED0082913D094F84100012816D02A
:102BB000012010BD94F83E000128F9D184F83E2090
:102BC0000FE094F83F000128F2D184F83F2008E09C
:102BD00094F840000128EBD184F8402001E084F80B
:102BE00041200122206800F051FD13492068134A5A
:102BF000884201D0904203D1436C43F400434364C4
:102C0000206888420DD090420BD0B0F1804F08D0A0
:102C10000B49884205D00B49884202D00A498842B4
:102C200004D1816801F00701062903D0016841F051
:102C300001010160002010BD002C01400034014062
:102C40000004004000080040000C00400068B0F1A3
:102C5000804F01D1FFF7CEB970477047704770477A
:102C6000F8B5016804460868CA684B6910F00F0F90
:102C70004FF0000559D003F0010602F49077374376
:102C800065D0C10705D0D10503D5616C41F00101C4
:102C90006164410705D5D90703D0616C41F0020199
:102CA0006164810705D5D90703D0616C41F0040147
:102CB0006164010707D502F02001314303D0616C44
:102CC00041F008016164616C00293AD0800604D5A6
:102CD000900602D5204600F0C9FE20684069616C6C
:102CE000C0F38010090700D460B3204600F052FE04
:102CF00020684069400621D52068143050E8001F44
:102D000021F0400140E80012002AF5D1E06BA8B1A3
:102D10006D494163E06BFEF739FE002811D0E06B8E
:102D2000416B01B0BDE8F040084783060FD593061C
:102D30000DD52046BDE8F84000F098BE2046FFF7CC
:102D40008EFFF8BD2046FFF78AFF6564F8BD266B4D
:102D50002023012E7CD1C6067AD5D60678D5086800
:102D60004868009048694FF00206400640D5E16B84
:102D7000086840680004000CE8D0A28D8242E5D9C2
:102D8000E085886920282DD020680C3050E8001F8D
:102D900021F4807140E80012002AF5D12068143037
:102DA00050E8001F21F0010140E80012002AF5D18F
:102DB0002068143050E8001F21F0400140E8001264
:102DC000002AF5D184F84230256320680C3050E8A1
:102DD000001F21F0100140E80012002AF5D1E06B3D
:102DE000FEF7B1FD6663A08DE18D401A81B22AE045
:102DF000A08DE18D401A81B2E08D0028A6D0002977
:102E0000A4D022680C3252E8000F20F4907042E8FF
:102E10000007002FF5D12068143050E8002F22F071
:102E2000010240E80027002FF5D184F842302563E5
:102E300020680C3050E8002F22F0100240E80023F8
:102E4000002BF5D166632046FFF708FFF8BDFFE7CA
:102E500005062BD5150629D594F841002128F5D172
:102E6000A068B0F5805F01D12069B0B1206A411C33
:102E70002162216800784860E08C401E0004000C4C
:102E8000E084E3D12068C16821F08001C16020683E
:102E9000C16841F04001C160D8E7206A0088C0F3F2
:102EA00008004860206A801C2062E5E74006CDD516
:102EB0005006CBD5CA68204622F04002CA6084F88A
:102EC000413000F0B1F8C1E79738000870B5040050
:102ED00004D094F84100002510B106E0012070BD37
:102EE00084F84050204600F023F8242084F8410064
:102EF0002068C16821F40051C160204600F018FE2E
:102F00002068016921F4904101612068416921F044
:102F10002A0141612068C16841F40051C1606564C3
:102F2000202084F8410084F842006563002070BDD1
:102F300070B586B00025064600950195029503956B
:102F400000682349884240D12249886940F4804082
:102F50008861886900F480400490886940F004002A
:102F6000886188691C4C00F00400049048150090AA
:102F7000022001900320039069462046FEF738FFA7
:102F80002015CDE90005694620460295FEF730FF81
:102F9000134C1248C4E900058020C4E902502020E7
:102FA0002561C4E90550C001E0612046FEF7AAFE94
:102FB00008B1FEF7E7F9F4630022062125206662D6
:102FC000FFF7B0F82520FFF79FF806B070BD0000AE
:102FD0000038014000100240000801405800024043
:102FE0009404002090F84230202B01D0022070473A
:102FF00021B11AB10023036300F0F6BD0120704730
:10300000064A0168914207D1C06B006840680449D4
:10301000C0F58070A1F8020270470000003801403E
:10302000D80000207047000000680349884202D1A0
:103030000249002008707047003801400400002059
:10304000FEE7000010B5FEF7CFFF174A1168431ADC
:1030500016498C7CA34224D310604B7C0A7C981ABE
:103060004443C8684008B4FBF0F00C7A012C08D047
:103070004B681418A34215D801204A6008724868AA
:1030800007E04A681044984202D3FF204B60F5E7FE
:103090004860096848436421B0FBF1F004490968BD
:1030A000486310BD181AF3E700000020C400002098
:1030B0000404002070B5114C4FF47A760025C4E961
:1030C0000065012020727000E0600A2020745A2000
:1030D00060741420A074FFF70DF909494200486894
:1030E000401CB2FBF0F0A27C5043B0FBF6F0206035
:1030F0000A68D062C8600868456370BDC4000020DB
:103100000404002010B5002820D0114CD0E9001094
:10311000C4E90310FFF7EEF80E4942004868401C6E
:10312000B2FBF0F0A27C50434FF47A72B0FBF2F0A5
:1031300020600A68D062C860607C6168814200D902
:103140006060207C6168814200D2606010BD000038
:10315000C4000020040400200F4810B50D49016090
:103160000821416000214FF440328160C0E9031220
:1031700012014261017641768176C176017741770D
:10318000FEF78DFA002803D0BDE81040FEF7FAB82C
:1031900010BD000000640040DC030020094808B5B1
:1031A000416941F0010141614069002200F00100E4
:1031B000009005210F20FEF7B5FFBDE808400F2065
:1031C000FEF7A2BF0010024010B501211B4A0846BD
:1031D00000F074FE1A4C194A0221E061483A0620B8
:1031E00000F00CFE154A2061303A0221032000F065
:1031F00005FE124A6061183A0221062000F0FEFD29
:103200000E4AA061D83A00210E4800F0A3FE0B4AF6
:103210002060B43A00210C4800F09CFE074A606030
:10322000903A0021094800F095FE044AA0606C3AEB
:103230000021074800F08EFEE06010BDDC58000859
:10324000080000205D330008A5330008653300083E
:10325000AD340008094808B5816941F02001816159
:10326000816901F020010091816941F004018161CF
:10327000806900F00400009008BD000000100240CA
:1032800010B58EB000240794089409940A940B9406
:103290001C2168460C94FDF705FA20481E49016080
:1032A0004721C0E9011440F2E731C0E9031480214D
:1032B0008161FFF735FA08B1FEF764F84FF48050EA
:1032C000079007A91548FFF7A3FA08B1FEF75AF8C7
:1032D0001248FFF732FC08B1FEF754F80B940BA923
:1032E0000E480C94FFF7DEF908B1FEF74BF86020AA
:1032F00000904FF4FA70CDE90104002269460748B6
:103300000494FFF7B4FB08B1FEF73CF80348FFF75D
:1033100087FB0EB010BD0000000400400404002034
:103320000C4810B50A4901604FF4E13141600021B9
:1033300081600C22C160C0E904128161C161FFF7A4
:10334000C5FD002803D0BDE81040FEF71BB810BD36
:10335000003801404C040020FEE7FEE7012000F0A9
:10336000DFFCFBE71CB50D4C4FF0FF352B46002270
:103370006946A06900F010FD60B99DF805309DF820
:10338000042007480099FCF79FFF6846FFF7BAFE44
:10339000FFF758FE012000F0C3FCE7E7080000201B
:1033A000A05900088AB01AA0FCF78EFF214C4FF0FC
:1033B000FF352B4600226946206900F0EDFC00280D
:1033C00022D11DA00099FCF77FFF6846FDF772FF30
:1033D00008B123A016E0694608A8FDF78CFFDDE9D7
:1033E0000810CDE906109DF81D309DF81C202548D9
:1033F000FCF76AFF00231A4606A9A06900F02AFD1F
:1034000010B121A0FCF760FF012000F089FCD0E79B
:1034100044454255473A2043414E2050726F636500
:103420007373205461736B20537461727465642EDE
:103430000A0000000800002044454255473A205049
:10344000726F63657373696E672043414E204D73DD
:10345000672049443D3078253033580A0000000089
:1034600044454255473A20496E76616C6964204371
:10347000414E204672616D652052656365697665CF
:1034800064210A005C59000844454255473A2042ED
:103490007265617468696E67204C4544205175659A
:1034A00075652046756C6C210A000000C4B013A03D
:1034B000FCF70AFF1A4C4FF0FF354FF482762B468B
:1034C000002241A9606900F067FC90B9BDF80811BD
:1034D00014A0FCF7F9FE31466846FDF7E3F8BDF8A5
:1034E000082168464199FDF76EF8694617A0FCF778
:1034F000EBFE012000F014FCE1E7000044454255DA
:10350000473A20554152542050726F6365737320BF
:103510005461736B20537461727465642E0A0000E9
:103520000800002044454255473A2050726F6365B9
:103530007373696E672055415254204D7367204C58
:10354000656E6774683D25640A0000004445425575
:10355000473A205265636569766564204461746109
:103560003A2025730A00000010B54FF0E0200069F2
:1035700001F092FF012803D0BDE8104001F014BC17
:1035800010BD30B58FB028216846FDF78BF81421A7
:103590000AA8FDF787F801210804CDE900100024EE
:1035A000029402250491CDE907504FF4E0100990F0
:1035B0006846FEF7E5FE08B172B6FEE70F20CDE9DA
:1035C0000A054FF48060CDE90C4002210AA80E9450
:1035D000FEF7DAFD002801D072B6FEE70FB030BD6D
:1035E000704700000148FFF782B90000D8040020AE
:1035F000F0B50268204C214D214E224F224B4FF056
:10360000804CA04209D0984207D0604505D0A8421E
:1036100003D0B04201D0B84204D122F0700E4A6803
:1036200042EA0E02A04209D0984207D0604505D078
:10363000A84203D0B04201D0B84203D122F4407571
:10364000CA682A434D6922F080022A4302608A68D0
:10365000C2620A688262A04201D0984201D109691F
:103660000163012141610169C90703D0016921F0AA
:1036700001010161F0BD0000002C01400004004088
:1036800000080040000C00400034014010B501F07B
:103690001F030121046A99408C430462016A9A4025
:1036A0001143016210BD10B5846842EA032224F47C
:1036B0007F440A432243826010BD826822F0700278
:1036C0000A4342F00701816070470000F0B5036AC9
:1036D000026A22F00102026242688469124E24F0FA
:1036E00073050C682C4323F002058B682B430D4DAA
:1036F000A84201D0B04205D123F00807CB683B4374
:1037000023F00403A84201D0B04205D14D6922F450
:10371000407215438A692A43426084614968416363
:103720000362F0BD002C014000340140F0B5026A94
:10373000036A23F010030362436884690D6824F46C
:10374000E64444EA05248D6822F0200242EA05128C
:103750000F4D104EA84201D0B04206D1CF6822F0E2
:10376000800242EA071222F04002A84201D0B04291
:1037700007D14D6923F4406343EA85038D6943EA29
:10378000850343608461496881630262F0BD000083
:10379000002C014000340140F0B5026A036A23F4B2
:1037A000807303624368C46922F4007224F07305D5
:1037B0000C68124E2C438D6842EA05220E4DA84239
:1037C00001D0B04206D1CF6822F4006242EA07225B
:1037D00022F48062A84201D0B04207D14D6923F49F
:1037E000405343EA05138D6943EA05134360C461FE
:1037F0004968C1630262F0BD002C01400034014001
:1038000030B5046A026A22F4805202624268C369D7
:103810000D6823F4E64343EA05238D6824F400543D
:1038200044EA0534084DA84202D0084DA84204D10C
:103830004D6922F4804242EA85124260C3614968C0
:103840000164046230BD0000002C014000340140DE
:1038500010B5036A046A24F001040462846924F048
:10386000F00444EA021423F00A020A43846102626B
:1038700010BD10B5036A046A24F010040462846960
:1038800023F0A00324F4704444EA023243EA011115
:103890008261016210BD10B5406A0021C185C184FA
:1038A000FFF7DDF910BD70B5446A2068406994F8EF
:1038B0004110C0F3C0100025212904D118B1E584BE
:1038C000204600F08EF82068406994F84210C0F35A
:1038D0008010222904D118B1E585204600F05AF85D
:1038E000606C40F0100060642046FFF7B8F970BDCE
:1038F00010B50146406A096809684FF00002890660
:103900002ED4C28501680C3151E8003F23F4807346
:1039100041E80034002CF5D10168143151E8003F32
:1039200023F0010341E80034002CF5D10168143183
:1039300051E8003F23F0400341E80034002CF5D16A
:10394000202180F84210016B012909D101680C3156
:1039500051E8003F23F0100341E80034002CF5D17A
:103960004263016B012902D0FFF74AFB10BD818D34
:10397000FFF774F910BD10B5406A01214163016B76
:10398000012902D0FFF74EFB10BD818D4908FFF7DA
:1039900065F910BD01680C3151E8002F22F49072D6
:1039A00041E80023002BF5D10168143151E8002FC4
:1039B00022F0010241E80023002BF5D1016B01291F
:1039C00009D101680C3151E8002F22F0100241E8C2
:1039D0000023002BF5D1202180F842100021016343
:1039E000704701680C3151E8002F22F0C00241E815
:1039F0000023002BF5D1202180F8411070470000F2
:103A000010B54FF400710E48FCF72AFE0C48002157
:103A100080F80012A0F8021290F800124FF48072A1
:103A200000EB01210748FFF7DDFA06480068C1688E
:103A300041F01001C160BDE8104003A0FCF744BC98
:103A4000D80000204C04002044454255473A2055F8
:103A500041525420496E697469616C697A656420C9
:103A60007769746820444D410A00000008B590F859
:103A70004210222901D0022008BD82684FF48053F1
:103A80009A4201D1016921B1816A9A421BD04AB19F
:103A90000AE00268816A5268C2F308020A80816AF9
:103AA000891C08E0026972B10268526802F07F0264
:103AB0000A70816A491C8162C18D491E0904090C82
:103AC000C18503D01BE002685268F1E70168CA684B
:103AD00022F02002CA600168CA6822F48072CA60BB
:103AE00001684A6922F001024A61202180F84210EF
:103AF00000214163026B012A03D0FFF781FA002005
:103B000008BD016301680C3151E8002F22F010025A
:103B100041E80023002BF5D101680A68D20602D5DE
:103B20000A6849680091818DFFF798F8E7E700007F
:103B300070B5044600680169E26821F44051114300
:103B400001612169A0680843616908432168CA6866
:103B500041F20C639A430243CA6020684169A2693A
:103B600021F44071114341611E492068884202D10D
:103B7000FEF7D0FB01E0FEF7BDFB00EBC00101EB5F
:103B80000012606864218000B2FBF0F3B3FBF1F334
:103B90006FF018067343B2FBF0F5B2FBF0F605EBDD
:103BA0008305322303EB0515B5FBF1F5B6FBF1F602
:103BB00005F0F00505EB0615B2FBF0F6B2FBF0F0F0
:103BC000B0FBF1F06FF01802504306EB800003EBFE
:103BD0000010B0FBF1F0216800F00F00284488606D
:103BE00070BD00000038014038B58162044682850E
:103BF000002013466064222284F84220E56B1B4AB1
:103C0000AA62E56B1A4AEA62E56B1A4A2A63E26B1A
:103C100050630A462168E06B091DFEF7B1F8206881
:103C2000016840680090206948B120680C3050E875
:103C3000001F41F4807140E80012002AF5D120688D
:103C4000143050E8001F41F0010140E80012002A42
:103C5000F5D12068143050E8001F41F0400140E8E1
:103C60000012002AF5D1002038BD0000F13800080C
:103C700077390008A73800080148FEF7F1BF0000B7
:103C80004C040020FEE70907090E002804DB00F1C0
:103C9000E02080F80014704700F00F0000F1E020F1
:103CA00080F8141D704730380A2801D2012070476F
:103CB000002070478A68002A01DCFCF708BF521E0A
:103CC0008A604A68C0B2531C4B6010707047000095
:103CD000FEF798F9FFF755FCFFF7BCFAFFF75EFA1D
:103CE000FFF73AFAFFF71CFBFFF7CAFAFFF7E2F912
:103CF000FFF786FE0848FDF7F3FD10210648FDF7A3
:103D000043FB00210548FEF747FF00F017F8FFF7D7
:103D10005BFA00F025F8FEE7DC0300200404002035
:103D200010B5EFF3058111B16FF0050403E0002435
:103D300008B100F0FFFE204610BD0000EFF3058043
:103D400010B16FF0050070470448016811B14FF0E1
:103D5000FF3070470121016000207047880000207B
:103D600010B5EFF3058010B16FF0050010BD0848E5
:103D70000168012902D04FF0FF3010BD054A002133
:103D800082F8141D0221016000F03CFF002010BDEC
:103D9000880000200BE000E0F8B51D466FF003023C
:103DA0006FF002064FF00004EFF30583A3B1F0B10A
:103DB000E9B1E5B9002200926A4601F08DFA0128C6
:103DC00017D10098B0B10C494FF080500860BFF394
:103DD0004F8FBFF36F8F0DE048B141B12A4601F01C
:103DE000DFF9012806D025B16FF0010402E0144686
:103DF00000E034462046F8BD04ED00E0F8B5144676
:103E00004FF00005EFF3058212BB08B301B3A4B174
:103E1000D4E9023263B1502A1AD32269C2B1676968
:103E200000FB01F6B74213D3009501F031F807E02B
:103E300072B9226962B9626952B9002201F007F8C9
:103E4000050005D00CB1216800E0002100F010FE53
:103E50002846F8BDF8B51D466FF003026FF0020664
:103E60004FF00004EFF30583ABB100B3F9B1F5B93E
:103E70000022134600926A4601F032F9012818D157
:103E80000098B8B10C494FF080500860BFF34F8FD5
:103E9000BFF36F8F0EE050B149B100232A4601F005
:103EA0006FF8012806D025B16FF0010402E0144636
:103EB00000E034462046F8BD04ED00E0F8B51446B5
:103EC00003460E464FF00005EFF3058098BB93B311
:103ED0009E423DD84CB1A0680028E06803D050282D
:103EE00036D3012002E008B132E00020012B05D0DA
:103EF00010B31846A26800F08AFF20E040B103200A
:103F00000090002211460120A36800F0C1FF04E0E8
:103F100003220021012000F09AFF050018D086B18D
:103F200000231A46194601F02BF8012809D028462B
:103F300000F0B2FD00250BE0184600F04BFF050035
:103F400006D00CB1216800E00021284600F090FD69
:103F50002846F8BD2DE9FF414FEA01034FF0000567
:103F6000EFF30581039549BB40B380271821002456
:103F70004AB3166806B1344696691EB13146761EBC
:103F8000382E02D21679F60703D0002004B0BDE81F
:103F9000F081566906B1B708D2F808C0BCF1000F2D
:103FA0000DD0D5685C2D18D312693AB136B18DE8C1
:103FB00006103A46214601F044FA03900DE0D66817
:103FC0005EB912694AB903AACDE90012BAB2214614
:103FD00001F00AFA012800D003950398D6E7000003
:103FE0002DE9F041134C0F460546E6682068001D98
:103FF00000F040FC681C07D137B12168BDE8F041F2
:104000000D48091D00F086BC20683544B542456066
:10401000216805D2A06BBDE8F041091D00F062BC2B
:10402000606B091D00F05EFCA06A854200D2A562AB
:10403000BDE8F08138000020100A00202DE9F04191
:10404000054600F073FC2D4CA068401CA060206861
:104050002B4F10B1606930B32BE02560A0680128B8
:1040600027D1002606EB860007EB800000F02CFC31
:10407000761C382EF6D3234800F026FC2148143055
:1040800000F022FC1F48283000F01EFC1D483C3088
:1040900000F01AFC1B48503000F016FC1948606311
:1040A0001430A06305E02068E96AC06A884200D83D
:1040B0002560606A401C60626864E86A2169884221
:1040C00000D9206100EB800007EB8000291D00F083
:1040D00021FC00F04BFC606900280CD02068E96AE4
:1040E000C06A884207D208494FF080500860BFF389
:1040F0004F8FBFF36F8FBDE8F081000038000020C4
:1041000060050020C009002004ED00E038B500F093
:104110000DFC104C2068C8B90F4800F0D5FB0E48C4
:10412000143000F0D1FB0C48E060143020610A4BE1
:104130000020F03B009003F1500210210A2000F013
:10414000A7FE206010B105A100F092FCBDE8384048
:1041500000F00CBC74000020140B0020546D725150
:104160000000000030B4026C0B46002A0BD0C1687E
:104170001144C1608468A14201D30168C16030BCB0
:104180001846FCF720BA30BC70472DE9F041856B2A
:10419000174604460026026C82B1C7B1E068FCF7FE
:1041A00012FAE168206C091AE1602268914202D299
:1041B000A168081AE060022F16D017E02068A8B99D
:1041C000A06801F0E1F906460020A0600EE06068FA
:1041D000FCF7F9F9216C606808446060A1688842C6
:1041E00004D32068606001E005B16D1E6D1CA563FD
:1041F0003046BDE8F08110B5044690F8590058B13A
:1042000001280CD002280FD0502080F31188BFF372
:104210004F8FBFF36F8FFEE7206B00F0BBFB204694
:10422000BDE8104000F0B6BB10BD000010484FF4D0
:104230000051420706D0C01D0D4920F00700411A69
:10424000C1F500510B4A00230144C2E900030839BB
:10425000183A21F0070111604B600B600B1AC0E99E
:10426000001393604FF000405360506170470000AE
:10427000F4110020A4000020144E154CA6F29C4717
:104280004FF08058DFF84C9012E000BF00F04EFB7A
:10429000F068C568281D00F0EDFAA068401EA06017
:1042A0006068401E606000F061FB2846FFF7A3FFD6
:1042B00060680028EAD138680128F9D9C9F8008077
:1042C000BFF34F8FBFF36F8FF2E70000FC090020B0
:1042D0003800002004ED00E070B51D46049C51B18B
:1042E000C4F80020C4E90F010121204600F004FEBB
:1042F00084F84C5070BD2460F4E700002DE9F05FB5
:104300008846DDE90B941546834691009A460A9E3D
:10431000A522206BFCF79CF96FF00301206B01EBE9
:104320008501084420F00707780707D0502080F364
:104330001188BFF34F8FBFF36F8FFEE70025B8F1F1
:10434000000F0FD05FF00000221818F8001082F85C
:10435000341018F8001011B1401C1028F4D384F860
:10436000435001E084F83450382E00D33726E662FB
:10437000C4E91365201D00F0B2FA04F1180000F042
:10438000AEFA2461C6F138006462A061656584F804
:10439000585052465946384600F05AFA2060B9F152
:1043A000000F01D0C9F80040BDE8F09F30B51149B9
:1043B00000E011460A688242FBD34B685C188442D5
:1043C00003D1406818444860084643681C1894426A
:1043D00009D1084C183C2468A24209D052681A44FA
:1043E00042600A6812680260814200D0086030BDF5
:1043F0000460F9E7A400002070B5002441600B4D73
:104400000061914206D8D11A8269914206D2011DFB
:10441000286907E09A4203D2994201D3012403E0BC
:10442000011DE86800F05EFA204670BD74000020AF
:1044300010B5044600F07AFAA06B28B15FF00004D2
:1044400000F094FA204610BD0124F9E730B589B098
:104450003C4D6EE00498002806DADDE90601059A75
:1044600090470498002864DB069C606910B1201D09
:1044700000F000FA03A800F0D7F8024604980A28D2
:1044800057D2DFE800F00505052D334A05052D3329
:1044900094F8280040F0010084F828000599A069EC
:1044A000059B01442046FFF7A7FF68B3216A204619
:1044B000884794F8280040073BD5002000900598D5
:1044C000A169002342181946204601F067F9D8B9BE
:1044D000502080F31188BFF34F8FBFF36F8FFEE73B
:1044E00014F8280F20F00100207022E094F8280032
:1044F00040F0010084F828000598A06128B18118D7
:1045000013462046FFF778FF13E0502080F3118810
:10451000BFF34F8FBFF36F8FFEE794F8280081073A
:1045200003D4204600F036FA03E020F0010084F8BE
:104530002800002204A9286800F032FE002889D152
:1045400009B030BD740000202DE9FC410F4605463E
:1045500000F09CFB01A800F067F80446019818B130
:1045600001F08AF8BDE8FC81254EAFB130690068E2
:10457000D0B30027291B3A46306800F0B9FA01F0A1
:104580007BF80028EED11F494FF080500860BFF340
:104590004F8FBFF36F8FE5E7A542EBD801F06CF8C2
:1045A000F0682746C068C468201D00F063F994F8DD
:1045B0002800410719D5A0692B4641193A462046E3
:1045C000FFF71AFFA8B100200346014600902A46D3
:1045D000204601F0E3F860B9502080F31188BFF362
:1045E0004F8FBFF36F8FFEE707E020F0010084F8E4
:1045F0002800216A20468847B4E70127BAE700006F
:104600007400002004ED00E00648416B096829B100
:10461000416BC968C9684968816270474FF0FF31D2
:10462000FAE700003800002070B5054600F042FFB0
:10463000064E0446B068844203D200F009F8012017
:1046400000E0002028602046B46070BD74000020A7
:10465000F8B5194D20E0C068C4680668201D00F058
:1046600009F9216A2046884794F82800400713D5A5
:10467000A0693044B04206D924616060211DE86819
:1046800000F030F908E00020034601460090324671
:10469000204601F083F838B1E86801680029DAD1D2
:1046A0002969C5E90310F8BD502080F31188BFF3D4
:1046B0004F8FBFF36F8FFEE77400002008484068FB
:1046C000401C4FF0500080F3118804D0BFF34F8F8F
:1046D000BFF36F8FFEE7BFF34F8FBFF36F8FFEE720
:1046E000AC000020074CE068016841B1C0680021BF
:1046F000D0F80000FFF728FFFFF7A8FEF3E701213D
:104700000020F7E7740000202DE9F041044600F096
:104710000DF994F9455004F1240609E0606A48B1A6
:10472000304600F071FF08B100F032FA6D1E6DB234
:10473000002DF3DC4FF0FF3684F8456000F016F9E9
:1047400000F0F4F894F9445004F1100709E02069EE
:1047500048B1384600F058FF08B100F019FA6D1E54
:104760006DB2002DF3DC84F84460BDE8F04100F048
:10477000FDB800002DE9F0410546002700F086FA5B
:10478000324E306808B9FFF751FD706905424ED1CD
:10479000C5B3083568070ED005F00700C0F1080062
:1047A0000544680707D0502080F31188BFF34F8F6E
:1047B000BFF36F8FFEE72DB37068854237D823486B
:1047C000183001460C6801E020460C466168A94299
:1047D00002D221680029F7D131688C4227D00768BE
:1047E0002168016060680837411B10290FD96019E2
:1047F000420708D0502080F31188BFF34F8FBFF3DA
:104800006F8FFEE713E041606560FFF7CFFD6168E1
:104810007068401A7060B268904200D2B0607069EF
:1048200001430020C4E90001F068401CF06000F082
:1048300023FF780707D0502080F31188BFF34F8FF4
:10484000BFF36F8FFEE73846BDE8F0818C00002093
:1048500010B5031F4FF080741C601B1F21F0010175
:104860001960191F024B0B60143940380A6010BDE3
:10487000BD460008D0E9013201699A60D0E9012300
:104880005A604A68824201D182684A60002202610D
:104890000868401E0860086870470000034B03600A
:1048A00003F15C0008608020106070473C0B002022
:1048B000044B036003F15C0008604FF480701060EB
:1048C00070470000980D002000F108014FF0FF3202
:1048D000C0E90112C160016100210160704700213F
:1048E0000161704730B50B685A1C02D000F1080214
:1048F00002E0026904E02246546825689D42FAD924
:1049000053684B6099608A60516008610168491C76
:10491000016030BD42684A6093688B60936859605B
:10492000916008610168491C01607047502080F364
:104930001188BFF34F8FBFF36F8F0A494868401C3F
:10494000486001280CD10848006810F0FF0F07D01C
:10495000502080F31188BFF34F8FBFF36F8FFEE7B6
:1049600070470000AC00002004ED00E008494868F2
:1049700028B1401E486001D180F311887047502053
:1049800080F31188BFF34F8FBFF36F8FFEE70000F6
:10499000AC00002070B500282AD0164DA0F1080404
:1049A00060686969084207D1502080F31188BFF31D
:1049B0004F8FBFF36F8FFEE722683AB1502080F32C
:1049C0001188BFF34F8FBFF36F8FFEE7884360609E
:1049D00000F05CF960686968084468602046FFF789
:1049E000E5FC2869401C2861BDE8704000F044BE29
:1049F00070BD00008C0000204FF0E020002101611C
:104A0000816105494FF47A720968B1FBF2F1491EE0
:104A100041610721016170473400002010B5FBF7A8
:104A20002FFC114910280ED300F1E02090F8F0037C
:104A30000A78904207D2502080F31188BFF34F8F3D
:104A4000BFF36F8FFEE709480068896800F4E060F3
:104A5000884207D9502080F31188BFF34F8FBFF3EE
:104A60006F8FFEE710BD0000AC0000200CED00E0F1
:104A700010B5084B002200BF53F832401CB1521C45
:104A8000082AF9D310BD43F8321003EBC201486085
:104A900010BD00002005002010B504000AD000F071
:104AA00013F894F8460000280CD12046BDE81040C9
:104AB000FFF770BF502080F31188BFF34F8FBFF313
:104AC0006F8FFEE710BD0000084A002102EBC10312
:104AD0005B68834206D1002042F8310002EBC1013D
:104AE00048607047491C0829F0D370472005002012
:104AF00070B515460E460446FFF718FF94F94410AA
:104B00000020491C01D184F8440094F94510491C47
:104B100001D184F84500FFF729FFA06B28B92A4688
:104B2000314604F1240000F051F82046BDE8704001
:104B3000FFF7EABD10B5020014D00F48006B38B182
:104B4000502080F31188BFF34F8FBFF36F8FFEE7C4
:104B500000F09CF800211046FFF742FA00F08CFDAF
:104B6000002807D105494FF080500860BFF34F8FF0
:104B7000BFF36F8F10BD00003800002004ED00E08F
:104B800002490A6A0260C968416070473800002023
:104B900001490120C86170473800002010B50C465B
:104BA00050B1094909681831FFF79CFE2046BDE85D
:104BB00010400121FFF714BA502080F31188BFF391
:104BC0004F8FBFF36F8FFEE73800002070B514469B
:104BD0000D4668B10A4909681831FFF79BFE0CB110
:104BE0004FF0FF3521462846BDE87040FFF7F8B981
:104BF000502080F31188BFF34F8FBFF36F8FFEE714
:104C00003800002030B587B00024039405AA04A919
:104C100003A80494FFF742FEDDE903010094CDE907
:104C20000110002315A11748059A00F00AFC164D43
:104C30000028E8621FD000F081FD012809D0401C47
:104C400019D1502080F31188BFF34F8FBFF36F8FBE
:104C5000FEE7502080F31188BFF34F8FBFF36F8FB3
:104C60004FF0FF30A86201206861EC6007B0BDE83A
:104C7000304000F045B807B030BD000049444C4515
:104C80000000000079420008380000200248016B53
:104C9000491C01637047000038000020164810B519
:104CA000016B11B10121C16110BD0021C161016918
:104CB000124A01E0B9B1491E01EB810352F82330D9
:104CC000002BF7D001EB810302EB830202F1080411
:104CD00053685B685360A34201D15B685360DA6834
:104CE0000260016110BD502080F31188BFF34F8F27
:104CF000BFF36F8FFEE70000380000206005002042
:104D00001CB5264908780190FF20087008788DF8B6
:104D100000009DF800009DF8002000F0F000904297
:104D200007D0502080F31188BFF34F8FBFF36F8FF0
:104D3000FEE79DF800001A4C00F05000207007209C
:104D4000A06005E09DF8002052008DF80020401E74
:104D50009DF800201206F5D4A060032807D050204B
:104D600080F31188BFF34F8FBFF36F8FFEE74FF4CF
:104D70004070A060019808700A48016841F4700111
:104D80000160016841F070410160FFF735FE0020CD
:104D90006060FBF73FFA00201CBD000000E400E06B
:104DA000AC00002020ED00E010B5502080F3118809
:104DB000BFF34F8FBFF36F8F00F082FB18B1044930
:104DC0004FF080500860002080F3118810BD000073
:104DD00004ED00E010B50C4648B184420FD95020D4
:104DE00080F31188BFF34F8FBFF36F8FFEE7502022
:104DF00080F31188BFF34F8FBFF36F8FFEE702225E
:104E0000002100F024F8002800D0846310BD38B5DC
:104E10000C4648B184420FD9502080F31188BFF36B
:104E20004F8FBFF36F8FFEE7502080F31188BFF3E1
:104E30004F8FBFF36F8FFEE70221134600220091D0
:104E4000114600F025F8002800D0846338BDF8B57D
:104E500017460E46050013D005FB06F05030FFF74D
:104E600089FC04000AD0002084F8460004F15002B6
:104E70003B46314628460094FFF72EFA2046F8BDFF
:104E8000502080F31188BFF34F8FBFF36F8FFEE781
:104E900038B5049D18B153B1CAB181B120E050209A
:104EA00080F31188BFF34F8FBFF36F8FFEE7502061
:104EB00080F31188BFF34F8FBFF36F8FFEE7502051
:104EC00080F31188BFF34F8FBFF36F8FFEE739B1C7
:104ED000502080F31188BFF34F8FBFF36F8FFEE731
:104EE00050241C46012384F846302B460094FFF7DB
:104EF000F3F9204638BD000070B50D46040025D0FA
:104F0000FFF714FDD4E90F20216802FB0011A16016
:104F10000021A163216861600A46D4E90F01401EA7
:104F200000FB0121E16021464FF0FF3001F8440F02
:104F3000487004F110008DB1FFF7C6FC04F12400A5
:104F4000FFF7C2FCFFF712FD012070BD502080F377
:104F50001188BFF34F8FBFF36F8FFEE721690029E0
:104F6000F0D000F051FB0028ECD004494FF0805005
:104F70000860BFF34F8FBFF36F8FE3E704ED00E0EE
:104F80002DE9FF4782B01D468A464FF00008040015
:104F900003D0BAF1000F08D011E0502080F311883F
:104FA000BFF34F8FBFF36F8FFEE7206C38B15020F7
:104FB00080F31188BFF34F8FBFF36F8FFEE7022D91
:104FC0000AD1E06B012807D0502080F31188BFF38D
:104FD0004F8FBFF36F8FFEE700F05EFA3F4F4FF049
:104FE00000094FF0805648B9049838B1502080F33A
:104FF0001188BFF34F8FBFF36F8FFEE7FFF796FC6B
:10500000A06BE16B884207D3022D05D00498D0B184
:10501000B8F1000F1AD01EE02A4651462046FFF78D
:10502000B4F8616A19B104F1240000F0EDFA20B17E
:105030003E60BFF34F8FBFF36F8FFFF797FC0120E8
:1050400006B0BDE8F087FFF791FC22E06846FFF765
:1050500097FD4FF00108FFF789FCFFF717FEFFF7F8
:1050600065FC94F94400401C01D184F8449094F903
:105070004500401C01D184F84590FFF777FC04A956
:10508000684600F077F930B12046FFF73DFB00F0AD
:10509000F3FA0020D4E7FFF749FCA06BE16B8842EC
:1050A00013D1FFF763FC04F110000499FFF776FDBC
:1050B0002046FFF729FB00F0DFFA00289ED13E6072
:1050C000BFF34F8FBFF36F8F98E7FFF74FFC20467A
:1050D000FFF71AFB00F0D0FA90E7000004ED00E0C3
:1050E0002DE9F0471F4690468946040003D0B9F1E8
:1050F000000F08D011E0502080F31188BFF34F8FCC
:10510000BFF36F8FFEE7206C38B1502080F3118819
:10511000BFF34F8FBFF36F8FFEE7022F0AD1E06B13
:10512000012807D0502080F31188BFF34F8FBFF3C1
:105130006F8FFEE7FFF772FC5020EFF3118680F3CC
:105140001188BFF34F8FBFF36F8FA06BE16B884265
:1051500006D3022F04D0002086F31188BDE8F08723
:1051600094F94550A06B3A4649462046FFF70DF8A2
:10517000681C04D06D1C84F845500120ECE7606A7F
:105180000028FAD004F1240000F03EFA0028F4D000
:10519000B8F1000FF1D00121C8F80010EDE70000D0
:1051A0002DE9F747002683B08A46040003D0BAF100
:1051B000000F08D011E0502080F31188BFF34F8F0B
:1051C000BFF36F8FFEE7206C38B1502080F3118859
:1051D000BFF34F8FBFF36F8FFEE700F05DF9DFF88D
:1051E000F4804FF000094FF0805748B9059838B166
:1051F000502080F31188BFF34F8FBFF36F8FFEE70E
:10520000FFF794FBA56BC5B151462046FEF7AAFFF8
:105210006D1EA563206950B104F1100000F0F4F98F
:1052200028B1C8F80070BFF34F8FBFF36F8FFFF73F
:105230009DFB012006B0BDE8F087059808B11EB1BE
:1052400006E0FFF793FB27E06846FFF799FC01268D
:10525000FFF78CFBFFF71AFDFFF768FB94F944009A
:10526000401C01D184F8449094F94500401C01D1C0
:1052700084F84590FFF77AFB05A9684600F07AF8B4
:10528000002820460AD0FFF73FFA00F0F5F9204643
:10529000FFF7CEF80028B3D00020CBE7FFF7C8F81F
:1052A00090B104F124000599FFF778FC2046FFF740
:1052B0002BFA00F0E1F90028A2D1C8F80070BFF382
:1052C0004F8FBFF36F8F9BE72046FFF71DFA00F06B
:1052D000D3F995E704ED00E02DE9F04790468946C3
:1052E000040003D0B9F1000F08D011E0502080F382
:1052F0001188BFF34F8FBFF36F8FFEE7206C38B17B
:10530000502080F31188BFF34F8FBFF36F8FFEE7FC
:10531000FFF784FB5020EFF3118680F31188BFF371
:105320004F8FBFF36F8FA76BF7B194F94450494685
:105330002046FEF717FF7F1EA763681C04D06D1C74
:1053400084F84450012010E020690028FAD004F1CC
:10535000100000F059F90028F4D0B8F1000FF1D096
:105360000121C8F80010EDE7002086F31188BDE8A0
:10537000F08700002DE9F0410C46050011D0C4B1C2
:10538000FFF7D4FA174BDA686E682068911B471C48
:1053900017D02F681B6A9F4219D0964217D8012454
:1053A00010E0502080F31188BFF34F8FBFF36F8F51
:1053B000FEE7502080F31188BFF34F8FBFF36F8F4C
:1053C000FEE70024FFF7D2FA2046BDE8F0818842CC
:1053D00005D9401A20602846FFF7D2FBF1E70020EC
:1053E0002060DCE7380000202DE9FF5F8346DDE91F
:1053F0000E87994616468A469000FFF7BBF90500CE
:105400001CD05C20FFF7B6F9040014D000202563FF
:1054100084F85900CDE90240CDE900874B46324679
:1054200051465846FEF76AFF2046FEF707FE012068
:1054300004B0BDE8F09F2846FFF7ACFA4FF0FF300C
:10544000F6E7F0B585B0DDE90B640A9DA6B1DCB1E5
:105450005C2700972663022684F85960002604AF73
:10546000CDE90246CDE90057FEF748FF2046FEF79A
:10547000E5FD049805B0F0BD502080F31188BFF31E
:105480004F8FBFF36F8FFEE7502080F31188BFF37B
:105490004F8FBFF36F8FFEE70548416919B1006B6D
:1054A00018B10020704701207047022070470000AB
:1054B000380000200148C068704700003800002014
:1054C0002DE9F0412E4C0027206B28B1A069401C2B
:1054D000A0613846BDE8F081E668761CE66013D12D
:1054E000606B006838B1502080F31188BFF34F8F94
:1054F000BFF36F8FFEE7606BA16B6163A063206AEF
:10550000401C2062FFF780F8A06ADFF878808642AE
:1055100009D3606B0068A0B1606BC068C56868683B
:10552000864211D2A0622068C06A00EB800158F860
:105530002100012800D90127E0690028C9D00127EE
:10554000C7E74FF0FF30EDE7281DFFF793F9A86A92
:1055500018B105F11800FFF78DF9E86A2169884252
:1055600000D9206100EB800108EB8100291DFFF7C5
:10557000D1F9E86A2168C96A8842CAD30127C8E715
:10558000380000206005002070B504004FF00001D5
:1055900033D01B4D2868844207D0502080F31188F7
:1055A000BFF34F8FBFF36F8FFEE7206D38B1401E02
:1055B0002065E36CE26A9A421FD040B11DE05020A2
:1055C00080F31188BFF34F8FBFF36F8FFEE7201D6D
:1055D000FFF750F9E06CE062C0F13800A061E06ACA
:1055E0002969884200D92861064900EB800001EB57
:1055F0008000211DFFF78EF90121084670BD0000D3
:10560000380000206005002070B5C068C46854B13F
:1056100004F118000646FFF72DF9144D286B50B120
:105620003146134815E0502080F31188BFF34F8FA7
:10563000BFF36F8FFEE7201DFFF71CF9E06A2969B1
:10564000884200D928610B4900EB800001EB800003
:10565000211DFFF75FF9E06A2968C96A884202D90B
:105660000120E86170BD002070BD000038000020FE
:10567000E8090020600500202DE9F0472C4D0024AA
:105680002746286B38B1FFF751F9286B401E286375
:10569000286B40B146E0502080F31188BFF34F8F54
:1056A000BFF36F8FFEE7A968224E0120D1B3A6F5A4
:1056B000916980463068E0B1F068C46804F1180070
:1056C000FFF7D8F8201DFFF7D5F8E06A296988426E
:1056D00000D9286100EB800109EB8100211DFFF753
:1056E00019F9E06A2968C96A8842E3D3C5F81C80C1
:1056F000E0E70CB1FEF788FFAC694CB14FEA080651
:10570000FFF7DEFE00B1EE61641EF9D10020A86152
:10571000E86938B10849012738070860BFF34F8F9F
:10572000BFF36F8FFFF722F93846BDE8F08700001E
:1057300038000020E809002004ED00E010B586B034
:10574000FEF7E4FC114C2068B8B1002003900490EF
:1057500005AA04A903A8FFF7ABF8DDE9032102209D
:105760008DE8070000230AA10B48059AFFF769FEA0
:10577000606010B106B0012010BD502080F3118888
:10578000BFF34F8FBFF36F8FFEE700007400002060
:10579000546D722053766300E54600082DE9FF4101
:1057A0001E46134602000A9D4FF0000016D0144C0E
:1057B0002768002F0FD0CDE900130292062917DACF
:1057C000FFF76AFE02284FF000030FD0002269465F
:1057D0002068FFF7D5FB04B0BDE8F081502080F3CE
:1057E0001188BFF34F8FBFF36F8FFEE72A46EEE7B6
:1057F0000023324669463846FFF772FCEBE70000AB
:1058000074000020345A000800000000000000006E
:10581000000000000000000000020000180000006E
:105820000000000000000000F05900080000000027
:105830000000000000000000000000000004000064
:10584000180000000000000000000000F4590008EB
:105850000000000000000000000000000000000048
:105860000004000010000000000000000000000024
:10587000245A0008000000000000000000000000A2
:1058800000000000000400001800000000000000FC
:1058900000000000045A00080000000000000000A2
:1058A000000000000000000000000000145A000882
:1058B00000000000000000000000000000000000E8
:1058C00000000000545A0008000000000000000022
:1058D000000000000000000000000000405A000826
:1058E00000000000000000000000000001020203B0
:1058F0000405060708090A0B0C0D0E0F1010000016
:10590000000000000000010203040607080900006F
:105910000000010203043031323334353637383970
:1059200041424344454640305800303132333435EB
:105930003637383961626364656640307800040048
:105940000008000000000000000200010000103A02
:105950007474003A7474003A7474000044454255FB
:10596000473A20457874726163746564204C4544FD
:1059700020506172616D733A20506572696F643DA9
:1059800025646D73204D696E447574793D256425D9
:1059900025204D6178447574793D256425250A00DC
:1059A00044454255473A2050726F63657373696E80
:1059B0006720427265617468696E67204C454420B7
:1059C000506172616D733A20506572696F643D2554
:1059D000646D73204D696E447574793D2564252589
:1059E000204D6178447574793D256425250A0000B1
:1059F00043414E005461736B5F4272656174686924
:105A00006E675F0051756575655F43414E5F446128
:105A10007461000051756575655F554152545F446E
:105A2000617461005441534B5F554152545F507251
:105A30006F63650064656661756C745461736B00B7
:105A400042696E61727953656D5F4C45445F467281
:105A5000657100002051756575655F43414E5F506B
:105A6000726F636573730000885A0008000000209D
:105A7000C40000006C0100084C5B0008C40000205A
:105A80008C380000880100080000000000000000C1
:105A90000000000000000000000000000000000006
:105AA00000000000000000000000000000000000F6
:105AB00001000000100000000000000000127A0049
:105AC00000000000000000000000000000000000D6
:105AD00000000000000000000000000000000000C6
